:020000040000FA
:0600000020EF09F01200E0
:020006001200E6
:08000800F2A402D0A3EF03F003
:100010009EAA02D034EF00F0A4AA02D099EF00F01B
:0A0020001200D08EF28EF28C120056
:06002A0005009D1400001A
:100030007400000001000000931400006A0000003A
:100040000A00000077140000000E00001C000000F1
:10005000621400001C0E0000150000007612000063
:0800600000040000EC010000A7
:08006800DACFE4FFE2CFDAFF7A
:10007000E9CFE4FFEACFE4FFF6CFE4FFF7CFE4FFF8
:10008000F5CFE4FFF3CFE4FFF4CFE4FFFACFE4FFD2
:1000900000EE00F0100EE80403E3EECFE4FFFBD720
:1000A00000EE10F0040EE80403E3EECFE4FFFBD70C
:1000B000E652D9CFE6FFE1CFD9FFE65271EC08F066
:1000C000DF6E04017B517B2BEA6A7E0FE96E040E22
:1000D000EA22DFCFEFFF780E7B5D01E37B6B7D2BA8
:1000E0009E9AE552E552E7CFD9FFE55200EE13F0B4
:1000F000040EE80403E3E5CFEDFFFBD700EE0FF0BD
:10010000100EE80403E3E5CFEDFFFBD7E5CFFAFFE0
:10011000E5CFF4FFE5CFF3FFE5CFF5FFE5CFF7FF40
:10012000E5CFF6FFE5CFEAFFE5CFE9FFE5CFDAFF60
:100130001100DACFE4FFE2CFDAFFE9CFE4FFEACF44
:10014000E4FFF6CFE4FFF7CFE4FFF5CFE4FFF3CF12
:10015000E4FFF4CFE4FFFACFE4FF00EE00F0100E6E
:10016000E80403E3EECFE4FFFBD700EE10F0040E4B
:10017000E80403E3EECFE4FFFBD7E652D9CFE6FF76
:10018000E1CFD9FFE65252EC08F0DF6E0501715164
:10019000712BEA6A740FE96E050EEA22DFCFEFFFDA
:1001A000780E715D01E3716B732BA49AE552E552F1
:1001B000E7CFD9FFE55200EE13F0040EE80403E3A5
:1001C000E5CFEDFFFBD700EE0FF0100EE80403E3E0
:1001D000E5CFEDFFFBD7E5CFFAFFE5CFF4FFE5CFA5
:1001E000F3FFE5CFF5FFE5CFF7FFE5CFF6FFE5CF6E
:1001F000EAFFE5CFE9FFE5CFDAFF1100D9CFE6FF4F
:10020000E1CFD9FFE6527C0EDF6ED950FB0FE96ECD
:10021000FF0EDA20EA6E800EEE1806E1250EEE18CB
:1002200003E1EE5001E1EE500BE1FB0EDB6A4B0EF9
:10023000F36EFC0EF3CFDBFFFD0EDB6AFE0EDB6A16
:10024000D950FB0FE96EFF0EDA20EA6EEE2A000E9F
:10025000EE22EE22EE22D950FB0FE96EFF0EDA20DD
:10026000EA6E040EE76ED890EF36010EEB36020E02
:10027000EB36030EEB36E706F6E1106A900E116ED0
:10028000D00E126E030E136E10C004F011C005F0F4
:1002900012C006F013C007F0FB0EDBCF09F0FC0E16
:1002A000DBCF0AF0FD0EDBCF0BF0FE0EDBCF0CF048
:1002B0002EEC08F0FB0E04C0DBFFFC0E05C0DBFFDC
:1002C000FD0E06C0DBFFFE0E07C0DBFFFB0EDBCF23
:1002D000E6FFFC0EDBCFE6FFDFCFE6FFF5EC07F035
:1002E000E552E552E552AB8EAC8AAC9E9D8A9F8A60
:1002F000E552E552E7CFD9FF1200D9CFE6FFE1CFB3
:10030000D9FFE6527C0EDF6ED950FB0FE96EFF0E6F
:10031000DA20EA6E800EEE1806E1250EEE1803E1F3
:10032000EE5001E1EE500BE1FB0EDB6A4B0EF36E7B
:10033000FC0EF3CFDBFFFD0EDB6AFE0EDB6AD9504D
:10034000FB0FE96EFF0EDA20EA6EEE2A000EEE22B7
:10035000EE22EE22D950FB0FE96EFF0EDA20EA6E94
:10036000040EE76ED890EF36010EEB36020EEB3638
:10037000030EEB36E706F6E1106A900E116ED00E12
:10038000126E030E136E10C004F011C005F012C0FF
:1003900006F013C007F0FB0EDBCF09F0FC0EDBCF3D
:1003A0000AF0FD0EDBCF0BF0FE0EDBCF0CF02EECD7
:1003B00008F0FB0E04C0DBFFFC0E05C0DBFFFD0EEA
:1003C00006C0DBFFFE0E07C0DBFFFB0EDBCFE6FF48
:1003D000FC0EDBCFE6FF7C0EE66EB9EC07F0E552D3
:1003E000E552E552A58AA38A939C938EE552E55285
:1003F000E7CFD9FF1200D9CFE6FFE1CFD9FFACA2FA
:10040000FED704010051002BEA6A030FE96E040EC7
:10041000EA22FE0EDBCFEFFF022B780E005D01E338
:10042000006B010E00D0E552E7CFD9FF1200D9CF03
:10043000E6FFE1CFD9FFBAA2FED70401F651F62BB1
:10044000EA6AF90FE96E040EEA22FE0EDBCFEFFF37
:10045000F82B780EF65D01E3F66B010E00D0E55245
:10046000E7CFD9FF1200D9CFE6FFE1CFD9FF060EC3
:10047000E126010EF36E020EF3CFDBFF030EDB6A03
:10048000020EDBCF10F0DB06030EDBCF11F001E232
:10049000DB061050111006E0100EE66E00EC09F0BD
:1004A000E552EED7000E0401E76E0219E8AE02D065
:1004B000023503D0E750D880025523E20151EA6AA1
:1004C000030FE96E040EEA22010EEFCFDBFFACA2B0
:1004D000FED7010EDB50AD6EACA2FED70401012B9E
:1004E000780E015D01E3016B000EE76E0219E8AEC4
:1004F00002D0023503D0E750D880025501E202074E
:10050000D1D7010EF36E040EF3CFDBFF050EDB6ACD
:10051000040EDBCF10F0DB06050EDBCF11F001E29D
:10052000DB061050111006E0100EE66E00EC09F02C
:10053000E552EED7106E060EE15C02E2E16AE5528A
:10054000E16E1050E552E7CFD9FF1200D9CFE6FF98
:10055000E1CFD9FF060EE126010EF36E020EF3CFB6
:10056000DBFF030EDB6A020EDBCF10F0DB06030EAF
:10057000DBCF11F001E2DB061050111006E0100E87
:10058000E66E00EC09F0E552EED7000E0401E76ECE
:10059000F819E8AE02D0F83503D0E750D880F85506
:1005A00023E2F751EA6AF90FE96E040EEA22010E1E
:1005B000EFCFDBFFBAA2FED7010EDB50796EBAA2F5
:1005C000FED70401F72B780EF75D01E3F76B000E01
:1005D000E76EF819E8AE02D0F83503D0E750D880BE
:1005E000F85501E2F807D1D7010EF36E040EF3CFF0
:1005F000DBFF050EDB6A040EDBCF10F0DB06050E19
:10060000DBCF11F001E2DB061050111006E0100EF6
:10061000E66E00EC09F0E552EED7106E060EE15CD6
:1006200002E2E16AE552E16E1050E552E7CFD9FFF0
:100630001200D9CFE6FFE1CFD9FFE652DF6AA39AD5
:10064000000E0501E76E7319E8AE02D0733503D0D2
:10065000E750D880735502E2010EDF6EA38ADF50A7
:1006600000D0E552E552E7CFD9FF1200D9CFE6FF1F
:10067000E1CFD9FFE652DF6A9D9A000E0401E76ED2
:100680007D19E8AE02D07D3503D0E750D8807D5586
:1006900002E2010EDF6E9D8ADF5000D0E552E55286
:1006A000E7CFD9FF1200D9CFE6FFE1CFD9FFE6525D
:1006B0009D9A04017C517C2BEA6A7E0FE96E040E40
:1006C000EA22EFCFDFFF780E7C5D01E37C6B000E4A
:1006D000E76E7D19E8AE02D07D3503D0E750D880B3
:1006E0007D5501E27D079D8ADF5000D0E552E5523D
:1006F000E7CFD9FF1200D9CFE6FFE1CFD9FFE6520D
:10070000A39A05017251722BEA6A740FE96E050E05
:10071000EA22EFCFDFFF780E725D01E3726B000E0D
:10072000E76E7319E8AE02D0733503D0E750D88076
:10073000735501E27307A38ADF5000D0E552E552FA
:06074000E7CFD9FF120013
:0A074600DACFE4FFE2CFDAFFE9CFDB
:10075000E4FFEACFE4FFF6CFE4FFF7CFE4FFF5CF05
:10076000E4FFF3CFE4FFF4CFE4FFFACFE4FF00EEC1
:1007700000F0100EE80403E3EECFE4FFFBD700EE39
:1007800010F0040EE80403E3EECFE4FFFBD7E652DB
:10079000F2940E010E2B000E0F23102B1123122B9F
:1007A0001323142B15230C2B0D231607175B17355A
:1007B00004E216510008000E175508E3182B000E2E
:1007C00019231A231B23C80E166F176B025103112E
:1007D00007E005D003CEFAFF0E010251F96EFADFF1
:1007E00000CEE6FF01CEE6FFC8EC08F0E552E55288
:1007F000E55200EE13F0040EE80403E3E5CFEDFF4D
:10080000FBD700EE0FF0100EE80403E3E5CFEDFF99
:10081000FBD7E5CFFAFFE5CFF4FFE5CFF3FFE5CF58
:10082000F5FFE5CFF7FFE5CFF6FFE5CFEAFFE5CF30
:10083000E9FFE5CFDAFF1100DACFE4FFE2CFDAFF1C
:10084000E9CFE4FFEACFE4FFF6CFE4FFF7CFE4FF20
:10085000F5CFE4FFF3CFE4FFF4CFE4FFFACFE4FFFA
:1008600000EE00F0100EE80403E3EECFE4FFFBD748
:1008700000EE10F0040EE80403E3EECFE4FFFBD734
:10088000E6529E9004CEE6FF05CEE6FFACEC08F003
:10089000E552E5520E010651071107E005D007CEDB
:1008A000FAFF0E010651F96EFADFE55200EE13F081
:1008B000040EE80403E3E5CFEDFFFBD700EE0FF0F5
:1008C000100EE80403E3E5CFEDFFFBD7E5CFFAFF19
:1008D000E5CFF4FFE5CFF3FFE5CFF5FFE5CFF7FF79
:1008E000E5CFF6FFE5CFEAFFE5CFE9FFE5CFDAFF99
:1008F0001100DACFE4FFE2CFDAFFE9CFE4FFEACF7D
:10090000E4FFF6CFE4FFF7CFE4FFF5CFE4FFF3CF4A
:10091000E4FFF4CFE4FFFACFE4FF00EE00F0100EA6
:10092000E80403E3EECFE4FFFBD700EE10F0040E83
:10093000E80403E3EECFE4FFFBD7E652A19208CE32
:10094000E6FF09CEE6FFACEC08F0E552E5520E01F9
:100950000A510B1107E005D00BCEFAFF0E010A5128
:10096000F96EFADFE55200EE13F0040EE80403E33B
:10097000E5CFEDFFFBD700EE0FF0100EE80403E328
:10098000E5CFEDFFFBD7E5CFFAFFE5CFF4FFE5CFED
:10099000F3FFE5CFF5FFE5CFF7FFE5CFF6FFE5CFB6
:1009A000EAFFE5CFE9FFE5CFDAFF1100D9CFE6FF97
:1009B000E1CFD9FF9F0EE66EE4EC08F0E552FD0EA4
:1009C000DBCF00FEFE0EDBCF01FEFB0EDBCF02FE17
:1009D000FC0EDBCF03FEFD0EDBCFE6FFFE0EDBCF12
:1009E000E6FFC8EC08F0E552E552E552E7CFD9FF43
:1009F0001200D9CFE6FFE1CFD9FFFD0EDBCFE6FF36
:100A0000FE0EDBCFE6FFACEC08F0E552E5529F802E
:100A1000FD0EDBCF04FEFE0EDBCF05FEFB0EDBCFB3
:100A200006FEFC0EDBCF07FEE552E7CFD9FF120032
:100A3000D9CFE6FFE1CFD9FFFD0EDBCFE6FFFE0EFB
:100A4000DBCFE6FF90EC08F0E552E552FD0EDBCF80
:100A500008FEFE0EDBCF09FEFB0EDBCF0AFEFC0E0E
:100A6000DBCF0BFEE552E7CFD9FF1200D9CFE6FF6F
:100A7000E1CFD9FF040EE126F29A18CEDFFF010E76
:100A800019CEDBFF020E1ACEDBFF030E1BCEDBFFFF
:100A9000F28ADECF04F0DECF05F0DECF06F0DDCF48
:100AA00007F0DD52DD52040EE15C03E200D0E16AA2
:0C0AB000E552E16EE552E7CFD9FF1200DD
:040ABC00800E6F6ECB
:100AC0006E50E00BE842E842E842E842E84204089F
:100AD00001E0F6D7726A0E01930E436FB80E446FB1
:100AE000050E456F20D018D00E018F0E436FB80E43
:100AF000446F050E456F17D00E01830E436FB80E7D
:100B0000446F050E456F0FD00E01810E436FB80E76
:100B1000446F050E456F07D00E01930E436FB80E5C
:100B2000446F050E456FFA6BFB6BF869E00EF96FC9
:100B3000FE6BFF6BFC6BFD6B030E466F476BE26B4E
:100B4000E36B320EE06FC00EE16FEA6BEB6B330EBE
:100B5000E86FC00EE96F6F6A6E50E00BE842E84242
:100B6000E842E842E842000901E1F6D7606A0F0175
:100B7000306B939493861200D9CFE6FFE1CFD9FF73
:100B8000E652DF6A60AE1ED063CF31FE64CF32FE24
:100B900061CF33FE62CF34FE65CF35FE66CF36FEC1
:100BA00067CF37FE68CF38FE69CF39FE6ACF3AFE8D
:100BB0006BCF3BFE6CCF3CFE6DCF3DFE609E010EC9
:100BC000DF6E41D00F0130AF1ED033CF31FE34CFB6
:100BD00032FE31CF33FE32CF34FE35CF35FE36CF45
:100BE00036FE37CF37FE38CF38FE39CF39FE3ACF11
:100BF0003AFE3BCF3BFE3CCF3CFE3DCF3DFE309F1F
:100C0000010EDF6E20D00E0180AF1DD083CE31FEED
:100C100084CE32FE81CE33FE82CE34FE85CE35FECA
:100C200086CE36FE87CE37FE88CE38FE89CE39FE98
:100C30008ACE3AFE8BCE3BFE8CCE3CFE8DCE3DFE68
:100C4000809F010EDF6EDF0405E1DF6A7792010EFF
:100C500003D002D0000E00D0E552E552E7CFD9FF15
:100C600012000F01236B246B216B030E226F040E05
:100C7000256FAA0E266FCC0E276F550E286F110E0A
:100C8000296F2A6B2B6B2C6B2D6B208720B7FED71F
:020C9000120050
:0E0C9200D9CFE6FFE1CFD9FFE652DF6AE55287
:100CA000E552E7CFD9FF1200D9CFE6FFE1CFD9FF58
:100CB000020EE126DF6A010EDB6A36EC03F0000962
:100CC00009E053EC03F0DF6E310EDF5C02E131EC42
:100CD00006F0DF6ABCEC05F000092AE036CEE6FF3C
:100CE000FBEC01F0E55237CEE6FFFBEC01F0E552FC
:100CF00038CEE6FFFBEC01F0E55239CEE6FFFBEC27
:100D000001F0E5523ACEE6FFFBEC01F0E5523BCEB6
:100D1000E6FFFBEC01F0E5523CCEE6FFFBEC01F018
:100D2000E5523DCEE6FFFBEC01F0E55233EC02F07C
:100D3000020EE15C02E2E16AE552E16EE552E7CFC4
:100D4000D9FF1200D9CFE6FFE1CFD9FF030EE1268C
:100D5000FD0EDBCFE9FFFE0EDBCFEAFF010EEFCF8A
:100D6000DBFF020EDB6A010EDB50800A01E009D0D6
:100D7000FB0EDBCFE9FFFC0EDBCFEAFF800EEF6E50
:100D800000D0020EDB50106E030EE15C03E200D0D7
:100D9000E16AE552E16E1050E552E7CFD9FF12004B
:020DA00012003F
:0E0DA2002A0EF66E000EF76E000EF86E0001BF
:100DB0000900F550656F0900F550666F03E165673E
:100DC00001D03DD00900F550606F0900F550616F0A
:100DD0000900F550626F09000900F550E96E09003D
:100DE000F550EA6E090009000900F550636F09002B
:100DF000F550646F09000900F6CF67F0F7CF68F08F
:100E0000F8CF69F060C0F6FF61C0F7FF62C0F8FF7D
:100E10000001635302E1645307E00900F550EE6EF0
:100E20006307F8E26407F9D767C0F6FF68C0F7FF09
:100E300069C0F8FF00016507000E665BBFD71200AE
:100E4000D9CFE6FFE1CFD9FF040EE126700ED36EB5
:100E5000050EDE6EDD6ADFCF10F0DF06010EDBCFA0
:100E600011F001E2DB061050111006E0100EE66EE4
:100E700000EC09F0E552EFD7C26AC16AC06A0F01FF
:100E80005C6B5D6B94988298939C938E949C948EEB
:100E9000939493869B8C640EF36E020EF3CFDBFF6C
:100EA000030EDB6A020EDBCF10F0DB06030EDBCF96
:100EB00011F001E2DB061050111006E0100EE66E94
:100EC00000EC09F0E552EED7040EE15C02E2E16AC3
:0C0ED000E552E16EE552E7CFD9FF1200B9
:040EDC00D9CFE6FF85
:100EE000E1CFD9FF040EE126020EDB6A030EDB6AB6
:100EF00020EC07F02EEC09F0000EE66EE66A7F0E9D
:100F0000E66EC10EE66ED6EC04F0E552E552E5520F
:100F1000E552E66A4B0EE66EE66AE66AFEEC00F023
:100F2000E552E552E552E5525EEC05F011EC00F0B9
:100F30000E01F40E0E5D010E0F5905E331EC09F0C0
:100F40000E010E6B0F6B0E010A0E0C5D000E0D599B
:100F500005E354EC06F00E010C6B0D6BE9D7040EA3
:100F6000E15C02E2E16AE552E16EE552E7CFD9FFCA
:020F700012006D
:0E0F7200D9CFE6FFDACFE6FFE1CFD9FFE2CF1D
:100F8000DAFFBA6AA66AFD0EDBB0BA88DBA202D02D
:100F9000BA8CA68CDBB4BA8EDBA602D0A68801D0B0
:100FA000A68ADBA802D0BA8401D0BA94DBBAA6869E
:100FB000DBAC02D0A38A01D0A39ADBAE02D0A38817
:100FC00001D0A398FB0EDB507B6EFC0EDBCF11F043
:100FD00011C010F0116A10507C6EBA8AA68EE552CC
:0A0FE000E5CFDAFFE7CFD9FF1200DA
:060FEA00D9CFE6FFDACFCB
:100FF000E6FFE1CFD9FFE2CFDAFFAC6AAB6AFD0EC4
:10100000DBB0AC88DBA202D0AC8CAB8CDBB4AC8E9A
:10101000DBA602D0AB8801D0AB8ADBB8AC84DBBAEC
:10102000AB86DBAC02D09D8A01D09D9ADBAE02D0AC
:101030009D8801D09D98FB0EDB50AF6EFC0EDBCF80
:1010400011F011C010F0116A10507D6EAC8AAB8E99
:0C105000E552E5CFDAFFE7CFD9FF120030
:04105C00036A026AB7
:10106000016A006A200EE76ED8900436053606360F
:10107000073600360136023603360950005C0A5046
:1010800001580B5002580C50035809E30950005EF8
:101090000A50015A0B50025A0C50035A042AE72EE8
:0410A000E4D712007F
:0C10A400D9CFE6FFDACFE6FFE1CFD9FF9D
:1010B000E2CFDAFFE652F20E0E013E17A6AC03D0E5
:1010C0003E91A6B03E81A6B43E85A6B23E877A5038
:1010D000DF6EDF50E552E552E5CFDAFFE7CFD9FF0B
:0210E0001200FC
:0E10E200D9CFE6FFDACFE6FFE1CFD9FFE2CFAC
:1010F000DAFFE652F20E0E013F17ABAC03D03F9180
:10110000ABB03F81ABB43F85ABB23F87AE50DF6E33
:10111000DF50E552E552E5CFDAFFE7CFD9FF120005
:10112000D9CFE6FFDACFE6FFE1CFD9FFE2CFDAFF92
:10113000E652E652FC0EDBCFDEFFDBCFDDFF010E19
:10114000DB50B36EDF50B26EE552E552E552E5CFAB
:08115000DAFFE7CFD9FF12001E
:08115800D9CFE6FFDACFE6FF74
:10116000E1CFD9FFE2CFDAFFE652E652FC0EDBCF49
:10117000DEFFDBCFDDFF010EDB50CF6EDF50CE6E2A
:10118000E552E552E552E5CFDAFFE7CFD9FF12008D
:10119000D9CFE6FFDACFE6FFE1CFD9FFE2CFDAFF22
:1011A000E652E652FC0EDBCFDEFFDBCFDDFF010EA9
:1011B000DB50D76EDF50D66EE552E552E552E5CFF3
:0811C000DAFFE7CFD9FF1200AE
:0811C800D9CFE6FFDACFE6FF04
:1011D000E1CFD9FFE2CFDAFFFD0EDB507F0BD56EFA
:1011E000D76AD66AF294FD0EDBAE02D0F28A01D045
:1011F000F29AD58EE552E5CFDAFFE7CFD9FF12009C
:10120000FF0EE350146E480E01D04C0EE76EE72E31
:10121000FED7E76AE72EFED7142EF7D7000012009C
:10122000410EF36E00EE00F00E0E01D81200EA60DF
:1012300002D0EE6AFCD7F350E9601200EE6AFCD7E8
:101240001DEE00F02DEE00F0F86A0F9CD1EC06F0D8
:0C12500003EC00F06EEC07F0FBD712007E
:04125C000001746BAE
:1012600012000001740503E1746B829803D0010E33
:06127000746F8288120079
:0A127600000000000000000000006E
:10128000000000000000000000000000000000005E
:10129000000000000000000000000000000000004E
:1012A000000000000000000000000000000000003E
:1012B000000000000000000000000000000000002E
:1012C000000000000000000000000000000000001E
:1012D000000000000000000000000000000000000E
:1012E00000000000000000000000000000000000FE
:1012F00000000000000000000000000000000000EE
:1013000000000000000000000000000000000000DD
:1013100000000000000000000000000000000000CD
:1013200000000000000000000000000000000000BD
:1013300000000000000000000000000000000000AD
:10134000000000000000000000000000000000009D
:10135000000000000000000000000000000000008D
:10136000000000000000000000000000000000007D
:10137000000000000000000000000000000000006D
:10138000000000000000000000000000000000005D
:10139000000000000000000000000000000000004D
:1013A000000000000000000000000000000000003D
:1013B000000000000000000000000000000000002D
:1013C000000000000000000000000000000000001D
:1013D000000000000000000000000000000000000D
:1013E00000000000000000000000000000000000FD
:1013F00000000000000000000000000000000000ED
:1014000000000000000000000000000000000000DC
:1014100000000000000000000000000000000000CC
:1014200000000000000000000000000000000000BC
:1014300000000000000000000000000000000000AC
:10144000000000000000000000000000000000009C
:10145000000000000000000000000000000000008C
:0214600000008A
:0E14620000000000000000000000000000007C
:071470000000000000000075
:091477000000000000000000006C
:1014800000000000000000000000000000C8000094
:0314900000000059
:0A149300313233343536200057574C
:01149D00004E
:020000040030CA
:010000001DE2
:0100010018E6
:010002007984
:010003007C80
:010005008971
:010006009168
:010008000FE8
:00000001FF
